{
  "contractName": "SponsorDisplay",
  "abi": [
    {
      "constant": true,
      "inputs": [],
      "name": "priceInWei",
      "outputs": [
        {
          "name": "",
          "type": "uint256"
        }
      ],
      "payable": false,
      "stateMutability": "view",
      "type": "function"
    },
    {
      "constant": true,
      "inputs": [],
      "name": "owner",
      "outputs": [
        {
          "name": "",
          "type": "address"
        }
      ],
      "payable": false,
      "stateMutability": "view",
      "type": "function"
    },
    {
      "constant": false,
      "inputs": [],
      "name": "contractOwner",
      "outputs": [],
      "payable": false,
      "stateMutability": "nonpayable",
      "type": "function"
    },
    {
      "constant": true,
      "inputs": [],
      "name": "maxLength",
      "outputs": [
        {
          "name": "",
          "type": "uint256"
        }
      ],
      "payable": false,
      "stateMutability": "view",
      "type": "function"
    },
    {
      "constant": true,
      "inputs": [],
      "name": "message",
      "outputs": [
        {
          "name": "",
          "type": "string"
        }
      ],
      "payable": false,
      "stateMutability": "view",
      "type": "function"
    },
    {
      "constant": false,
      "inputs": [
        {
          "name": "newOwner",
          "type": "address"
        }
      ],
      "name": "transferOwnership",
      "outputs": [],
      "payable": false,
      "stateMutability": "nonpayable",
      "type": "function"
    },
    {
      "anonymous": false,
      "inputs": [
        {
          "indexed": false,
          "name": "message",
          "type": "string"
        },
        {
          "indexed": false,
          "name": "priceInWei",
          "type": "uint256"
        },
        {
          "indexed": false,
          "name": "newPriceInWei",
          "type": "uint256"
        },
        {
          "indexed": false,
          "name": "payer",
          "type": "address"
        }
      ],
      "name": "MessageSet",
      "type": "event"
    },
    {
      "anonymous": false,
      "inputs": [
        {
          "indexed": true,
          "name": "previousOwner",
          "type": "address"
        },
        {
          "indexed": true,
          "name": "newOwner",
          "type": "address"
        }
      ],
      "name": "OwnershipTransferred",
      "type": "event"
    },
    {
      "constant": false,
      "inputs": [
        {
          "name": "initialMessage",
          "type": "string"
        },
        {
          "name": "initialPriceInWei",
          "type": "uint256"
        },
        {
          "name": "maxLengthArg",
          "type": "uint256"
        }
      ],
      "name": "SponsorMessage",
      "outputs": [],
      "payable": false,
      "stateMutability": "nonpayable",
      "type": "function"
    },
    {
      "constant": false,
      "inputs": [
        {
          "name": "newMessage",
          "type": "string"
        }
      ],
      "name": "set",
      "outputs": [],
      "payable": true,
      "stateMutability": "payable",
      "type": "function"
    },
    {
      "constant": false,
      "inputs": [
        {
          "name": "destination",
          "type": "address"
        },
        {
          "name": "amountInWei",
          "type": "uint256"
        }
      ],
      "name": "withdrawl",
      "outputs": [],
      "payable": false,
      "stateMutability": "nonpayable",
      "type": "function"
    }
  ],
  "bytecode": "0x608060405234801561001057600080fd5b50610905806100206000396000f300608060405260043610610099576000357c0100000000000000000000000000000000000000000000000000000000900463ffffffff1680633c8da5881461009e5780634ed3885e146100c95780635afbed92146100f75780638011c9e3146101445780638da5cb5b146101c1578063ce606ee014610218578063d06a89a41461022f578063e21f37ce1461025a578063f2fde38b146102ea575b600080fd5b3480156100aa57600080fd5b506100b361032d565b6040518082815260200191505060405180910390f35b6100f5600480360381019080803590602001908201803590602001919091929391929390505050610333565b005b34801561010357600080fd5b50610142600480360381019080803573ffffffffffffffffffffffffffffffffffffffff16906020019092919080359060200190929190505050610422565b005b34801561015057600080fd5b506101bf600480360381019080803590602001908201803590602001908080601f0160208091040260200160405190810160405280939291908181526020018383808284378201915050505050509192919290803590602001909291908035906020019092919050505061052a565b005b3480156101cd57600080fd5b506101d6610554565b604051808273ffffffffffffffffffffffffffffffffffffffff1673ffffffffffffffffffffffffffffffffffffffff16815260200191505060405180910390f35b34801561022457600080fd5b5061022d610579565b005b34801561023b57600080fd5b506102446105bb565b6040518082815260200191505060405180910390f35b34801561026657600080fd5b5061026f6105c1565b6040518080602001828103825283818151815260200191508051906020019080838360005b838110156102af578082015181840152602081019050610294565b50505050905090810190601f1680156102dc5780820380516001836020036101000a031916815260200191505b509250505060405180910390f35b3480156102f657600080fd5b5061032b600480360381019080803573ffffffffffffffffffffffffffffffffffffffff16906020019092919050505061065f565b005b60025481565b6000600254341015151561034657600080fd5b600354838390501115151561035a57600080fd5b600260008154809291906001019190505590507fdcdb622b32e702624deefa35e206d468607329da1fd2eace4af76661b6a96dd88383600254843360405180806020018581526020018481526020018373ffffffffffffffffffffffffffffffffffffffff1673ffffffffffffffffffffffffffffffffffffffff16815260200182810382528787828181526020019250808284378201915050965050505050505060405180910390a18060028190555082826001919061041c9291906107b4565b50505050565b6000809054906101000a900473ffffffffffffffffffffffffffffffffffffffff1673ffffffffffffffffffffffffffffffffffffffff163373ffffffffffffffffffffffffffffffffffffffff1614151561047d57600080fd5b803073ffffffffffffffffffffffffffffffffffffffff1631101515156104a357600080fd5b600073ffffffffffffffffffffffffffffffffffffffff168273ffffffffffffffffffffffffffffffffffffffff16141515156104df57600080fd5b8173ffffffffffffffffffffffffffffffffffffffff166108fc829081150290604051600060405180830381858888f19350505050158015610525573d6000803e3d6000fd5b505050565b8260019080519060200190610540929190610834565b508160028190555080600381905550505050565b6000809054906101000a900473ffffffffffffffffffffffffffffffffffffffff1681565b336000806101000a81548173ffffffffffffffffffffffffffffffffffffffff021916908373ffffffffffffffffffffffffffffffffffffffff160217905550565b60035481565b60018054600181600116156101000203166002900480601f0160208091040260200160405190810160405280929190818152602001828054600181600116156101000203166002900480156106575780601f1061062c57610100808354040283529160200191610657565b820191906000526020600020905b81548152906001019060200180831161063a57829003601f168201915b505050505081565b6000809054906101000a900473ffffffffffffffffffffffffffffffffffffffff1673ffffffffffffffffffffffffffffffffffffffff163373ffffffffffffffffffffffffffffffffffffffff161415156106ba57600080fd5b600073ffffffffffffffffffffffffffffffffffffffff168173ffffffffffffffffffffffffffffffffffffffff16141515156106f657600080fd5b8073ffffffffffffffffffffffffffffffffffffffff166000809054906101000a900473ffffffffffffffffffffffffffffffffffffffff1673ffffffffffffffffffffffffffffffffffffffff167f8be0079c531659141344cd1fd0a4f28419497f9722a3daafe3b4186f6b6457e060405160405180910390a3806000806101000a81548173ffffffffffffffffffffffffffffffffffffffff021916908373ffffffffffffffffffffffffffffffffffffffff16021790555050565b828054600181600116156101000203166002900490600052602060002090601f016020900481019282601f106107f557803560ff1916838001178555610823565b82800160010185558215610823579182015b82811115610822578235825591602001919060010190610807565b5b50905061083091906108b4565b5090565b828054600181600116156101000203166002900490600052602060002090601f016020900481019282601f1061087557805160ff19168380011785556108a3565b828001600101855582156108a3579182015b828111156108a2578251825591602001919060010190610887565b5b5090506108b091906108b4565b5090565b6108d691905b808211156108d25760008160009055506001016108ba565b5090565b905600a165627a7a723058209558d7d8f5a40ce0792f18ac01cdc98bf5d5df3aef7d026cd26dbcc8a172f42e0029",
  "source": "pragma solidity ^0.4.22;\r\n\r\nimport 'Ownable.sol';\r\n\r\ncontract SponsorDisplay is Ownable {\r\n  string public message;\r\n  uint256 public priceInWei;\r\n  uint256 public maxLength;\r\n\r\n  event MessageSet(string message, uint256 priceInWei, uint newPriceInWei, address payer);\r\n\r\n  function SponsorMessage(string initialMessage, uint256 initialPriceInWei, uint256 maxLengthArg) public {\r\n    message = initialMessage;\r\n    priceInWei = initialPriceInWei;\r\n    maxLength = maxLengthArg;\r\n  }\r\n\r\n  function set(string newMessage) external payable {\r\n    require(msg.value >= priceInWei);\r\n    require(bytes(newMessage).length <= maxLength);\r\n\r\n    uint256 newPrice = priceInWei ++;\r\n    emit MessageSet(newMessage, priceInWei, newPrice, msg.sender);\r\n    priceInWei = newPrice;\r\n    message = newMessage;\r\n  }\r\n\r\n  function withdrawl(address destination, uint256 amountInWei) external onlyOwner {\r\n    require(address(this).balance >= amountInWei);\r\n    require(destination != address(0));\r\n    destination.transfer(amountInWei);\r\n  }\r\n}\r\n",
  "sourcePath": "C:\\Users\\kylel\\Desktop\\AccruBit\\GitHub\\SponsorsDAPP\\SponsorDisplay\\contracts\\SponsorDisplay.sol",
  "compiler": {
    "name": "solc",
    "version": "0.4.23+commit.124ca40d.Emscripten.clang"
  },
  "schemaVersion": "2.0.0",
  "updatedAt": "2018-05-11T05:12:22.109Z"
}